:020000040800F2
:10000000E00B0020D1010008211400085511000860
:100010002D1200084B070008712C0008000000009A
:10002000000000000000000000000000F1190008BE
:10003000890E00080000000059160008F925000884
:10004000EB010008EB010008EB010008EB010008E0
:10005000EB010008EB010008EB010008EB010008D0
:10006000EB010008EB010008EB010008EB010008C0
:10007000EB010008EB010008EB010008EB010008B0
:10008000EB010008EB010008E1040008EB010008A7
:10009000112A0008EB010008EB010008EB01000841
:1000A000EB010008EB010008EB010008EB01000880
:1000B000EB010008EB010008EB010008EB01000870
:1000C000EB010008EB010008EB010008EB01000860
:1000D000EB010008EB010008EB010008EB01000850
:1000E000EB010008EB0100088127000800F002F88E
:1000F00000F05FF80AA090E8000C82448344AAF163
:100100000107DA4501D100F054F8AFF2090EBAE860
:100110000F0013F0010F18BFFB1A43F0010318473B
:10012000FC2E00001C2F00000A444FF0000C10F8B9
:10013000013B13F0070408BF10F8014B1D1108BF65
:1001400010F8015B641E05D010F8016B641E01F805
:10015000016BF9D113F0080F1EBF10F8014BAD1C55
:100160000C1B09D16D1E58BF01F801CBFAD505E073
:1001700014F8016B01F8016B6D1EF9D59142D6D3CD
:10018000704700000023002400250026103A28BFF5
:1001900078C1FBD8520728BF30C148BF0B607047F9
:1001A000642900F04180002070471FB51FBD10B5C5
:1001B00010BD00F05BF91146FFF7F7FF02F00EFEED
:1001C00000F079F903B4FFF7F2FF03BC00F080F907
:1001D0000948804709480047FEE7FEE7FEE7FEE7DB
:1001E000FEE7FEE7FEE7FEE7FEE7FEE70448054917
:1001F000054A064B70470000FD250008ED00000889
:10020000E0050020E00B0020E0070020E0070020D0
:100210000FB4044910B503AA029800F0F9F810BC15
:100220005DF814FB100000202DE9F0410646002483
:1002300010687529314616A510D0AFF3008000284C
:1002400002DA404213A507E031688A0701D512A5FA
:1002500002E0490704D511A5012401E0AFF30080B5
:1002600000210A2206F1240709E0B0FBF2FCB0FBF2
:10027000F2F302FB1C00303078541846491C002869
:10028000F3D123462A463046BDE8F04100F067B876
:10029000000000002D0000002B00000020000000E6
:1002A0002DE9F0410F460546002028622846E968FE
:1002B000884770B3252805D0D5E901219047286AE1
:1002C000401CF2E7E9682846002688476C28044667
:1002D0000AD0682C08D04C2C35D06A2C31D0742C24
:1002E00031D07A2C2FD016E0E96806462846884798
:1002F000B042044608D16C2E23D04FF480662846C5
:10030000E9688847044606E06C2E03D04FF48076F7
:1003100001E01EE04026E4B1A4F14100192802D812
:10032000203446F400663A46214628462E60FFF700
:1003300037FF60B1012808D0FF1D27F007070837F5
:10034000B4E78026DBE70026D9E73F1DAEE720466D
:10035000B2E7286ABDE8F0817047704770472DE921
:10036000F0470D4699469246044600F1240801687C
:10037000880604D5E06921F01001216000E0012029
:10038000A84201DD471B00E00027A1697A1902EBB2
:100390000900081AA0612078C00602D42046AFF3F5
:1003A0000080002608E0D4E901211AF806009047F1
:1003B000206A401C761C20624E45F4DB2078C00683
:1003C0000AD52046AFF3008006E0D4E901213020B1
:1003D0009047206A401C2062381EA7F10107F4DC18
:1003E00007E0D4E9012118F805009047206A401C75
:1003F0002062281EA5F10105F3DC2046AFF3008042
:100400002078000602D50220BDE8F0870120FBE736
:10041000074B70B50D467B4400F011F804462846A2
:1004200000F020F810B14FF0FF3070BD204670BDD5
:100430007329000001694A1C02610878704700B501
:100440008FB0CDE901310021059105497944CDE90D
:10045000031011466846FFF723FF0FB000BD0000F0
:10046000E5FFFFFF007B00F080007047754600F05D
:100470002BF8AE4605006946534620F00700854636
:1004800018B020B5FFF7B2FEBDE820404FF00006DF
:100490004FF000074FF000084FF0000B21F007016C
:1004A000AC46ACE8C009ACE8C009ACE8C009ACE8AF
:1004B000C0098D46704710B50446AFF30080204652
:1004C000BDE81040FFF77EBE004870477C05002065
:1004D00001491820ABBEFEE726000200704700006D
:1004E00010B54FF49061234800F07DF800283FD00C
:1004F0004FF490611F4800F049F81E483C300068F6
:1005000000B21D49096808441B4908601B4800885F
:10051000401C1A49088008460088082828DB16482D
:100520000068098890FBF1F000B215490880084680
:100530000088C1B2134802680068401C114B186063
:10054000114881540E480088C0F3072118460268FC
:100550000068401C18600C48815418460088C0F39D
:100560000900194608600020034908600349088013
:1005700010BD000000240140080000200C000020F5
:100580000E000020040000204001002000220A127A
:10059000D3430360704721B1826842F00102826058
:1005A00003E0826822F001028260704721B1826814
:1005B00042F40042826003E0826822F400428260DA
:1005C00070470A460021816821F4E04111438160AF
:1005D0007047014600208A6802F004020AB1012037
:1005E00000E00020704770B5024600200023002480
:1005F0000B125568CEB205EA060415681D4015B108
:100600000CB1012000E0002070BD014600208A6886
:1006100002F008020AB1012000E00020704710B586
:100620000023CBB21AB144681C43446002E0446822
:100630009C43446010BD000030B5024600200023FA
:1006400050680F4C20400D790C6844EA0524204383
:10065000506090680B4C2040D1E902542C434D79F6
:1006600044EA450420439060D06A20F470000C7C7A
:10067000641EE4B2234340EA0350D06230BD000060
:10068000FFFEF0FFFDF7F1FFF0B504461546002030
:1006900000220026092911DDE068A1F10A0707EB15
:1006A000470C072707FA0CF29043A1F10A0707EB62
:1006B000470703FA07F21043E0600CE0206901EB02
:1006C000410C072707FA0CF2904301EB410703FAAC
:1006D00007F210432061A06BC0F30156EF1C06F136
:1006E000010CA7EB0C0707EB870C1F2707FA0CF28E
:1006F0009043EF1C06F1010CA7EB0C0707EB8707F3
:1007000001FA07F21043A063F0BD10B50A460021BC
:100710000023816B21F44011531E41EA0351816390
:1007200010BD816841F008018160704708B5002361
:1007300000930090009B0B440093009B1A6008BD3F
:10074000816841F004018160704700BFFEE7014607
:10075000CAB20B1243EA02207047000008B500201D
:10076000009022E19748008800F00F009649087039
:100770000846007800287CD1944800689449088095
:100780000846008800F030009249088090480088B0
:1007900000F440508E4908808C4909684BF6BF72BE
:1007A00001EA020080F4005080F0200040F4004193
:1007B00041F08001854A11608248008800F01000F5
:1007C00090BB1046006848F60F710840114608605B
:1007D00000F0C2FC7D4909684BF6BF7201EA0200D5
:1007E0007B49098801F4805109B180F4805078492F
:1007F000098801F4005109B180F400507549098855
:1008000001F0100109B180F010007249098801F06F
:10081000200109B180F0200081B241F4004141F093
:1008200080016A4A116008BDFFE76848006880B22D
:100830000090BDF8000000F40060B0B363480068A9
:10084000C0F30E0048F68F7108406049086001F05F
:10085000ABFB5E4909684BF6BF7201EA02005C49D6
:10086000098801F4805109B180F480505849098801
:1008700000E056E001F4005109B180F40050554900
:10088000098801F0100109B180F010005149098870
:1008900001F0200109B180F0200081B241F4004153
:1008A00041F08001494A1160BDE7FFE7BDF8000053
:1008B00000F40040002878D044480068C0F30E00DF
:1008C00048F68F7108404149086000F089FE3F49B1
:1008D00009684BF6BF7201EA02003D49098801F43C
:1008E000805109B180F480503949098801F40051E0
:1008F00009B180F400503749098801F0100109B1AD
:1009000080F010003349098801F0200109B180F01E
:10091000200081B241F4004141F080012B4A116076
:1009200081E7294800782C4901EB8000D0F8000CC1
:1009300080B20090BDF8000000F40040C0B1224831
:10094000007801EB8000D0F8000CC0F30E0048F6F0
:100950008F7108401C4909781F4A02EB8101C1F8D8
:10096000000C19490978491E1C4A52F82100804799
:10097000BDF8000000F08000B8B1134800781649B7
:1009800001EB8000D0F8000C48F60F7108400E49CA
:100990000978114A02EB8101C1F8000C0A49097873
:1009A000491E0F4A52F82100804708484430006829
:1009B00080B20449088000F4004000287FF4D2AEE1
:1009C00000BF30E76000002048000020005C0040CD
:1009D0005C0000205E0000200050004088000020E5
:1009E0006C0000200B4A02EB8001D1F8001C01F4DE
:1009F000804171B102EB8001D1F8001C48F68F7282
:100A000011404CF280021143024B03EB8002C2F80A
:100A1000001C7047005000400B4A02EB8001D1F8E7
:100A2000001C01F0400171B102EB8001D1F8001C03
:100A300048F68F72114048F2C0021143024B03EB9B
:100A40008002C2F8001C704700500040084A02EBC8
:100A50008001D1F8001C48F68F62114048F28002F4
:100A60001143034B03EB8002C2F8001C70470000E7
:100A7000005000402DE9F0472848006800F11005BB
:100A80002E8826480068077AD6B9042F18D1244842
:100A9000007801280FD100212248006880B2801C14
:100AA000214A42F8101030202049088000BF002061
:100AB0001B49087003E0072710201C49088027E025
:100AC000AC88A64201D8042000E002200746B442C8
:100AD00000D93446A0B2A96888478046002000F0BB
:100AE0000FFB8146A2B24946404602F0C3F8A1B2CC
:100AF000002001F023F92888001B28806888204402
:100B0000688030200949088000020949088000BF38
:100B1000024909680F72BDE8F08700004C00002010
:100B20002A000020505C0040006000405E00002071
:100B30005C0000202DE9F0412848006800F1100415
:100B40002688A068C0B1BEB1A588B54200D9354697
:100B5000A8B2A168884707462088401B208060888B
:100B600028446080002000F0BBFA8046AAB24146CB
:100B7000384600F05DFD00BF208850B14FF4405072
:100B8000174908800021084601F0D8F8302015499F
:100B900008802088A188884204DB03200F49096867
:100BA000087218E02088002804DD05200B49096838
:100BB000087210E0208870B9062008490968087298
:100BC00000210948006880B2801C084A42F81010D1
:100BD000302004490880BDE8F08100004C0000206E
:100BE0005C0000205E000020505C0040006000407F
:100BF0002DE9F84F9B48006845780027BA46062D36
:100C00001BD198480068007800F07F00002813D1BD
:100C1000944909688878012803D193490968CF6904
:100C20000AE0022803D1904909680F6A04E003280A
:100C300002D18D4909684F6A94E0002D64D189483A
:100C40000068408800285FD186480068C088022874
:100C50005AD1844800680079002855D1814800683D
:100C6000007800F07F0028B97E480068808808B9C5
:100C70007E4F77E07B480068007800F07F00012815
:100C800010D1784909684879774909688A6900214B
:100C90009047002866D173480068807A002861D0A8
:100CA000724F5FE06F480068007800F07F00022814
:100CB00058D16C480068407900F00F066948006818
:100CC000407900F0700967480068407900F08000C2
:100CD00038B1674901EB8600D0F8000C00F030080D
:100CE00006E0634901EB8600D0F8000C00F44058A0
:100CF00060480078B04235D9B9F1000F32D1B8F16F
:100D0000000F2FD0594F2DE0082D07D1554800680E
:100D1000007800F07F0028BB574F23E00A2D21D137
:100D200050480068007800F07F0001281AD14D4833
:100D30000068807AB0B14B480068408890B9494853
:100D40000068007970B947480068C088012809D157
:100D5000444909684879444909688A6900219047EB
:100D600000B9464F57B13F480068A0F812A03D486F
:100D7000006887610020B84700240FE0394A1268F4
:100D80005078394A1268116988470446032C05D106
:100D90000920344909680872BDE8F88F31480068B5
:100DA000008A4FF6FF71884204D109202D49096855
:100DB0000872F1E7022C03D02A480068008A20B9A3
:100DC0000820284909680872E6E726480068007884
:100DD00000F08000E0B323480068C08800902148FC
:100DE0000068008A0099884204D91E490098096861
:100DF000088223E01B480068008A1A490968C988EC
:100E000088421BDA17480068008A1749096891F878
:100E10002C10884203DA0020194908700EE01148AE
:100E20000068008A1049096891F82C1090FBF1F2D3
:100E300001FB120010B90120114908700A4800682E
:100E400090F82C10074800688182FFF713FE07E036
:100E5000FFE7032003490968087200030949088075
:100E600000BF99E74C0000205000002049220008F4
:100E700000500040AE000020CD2100081D220008D7
:100E80002A0000205C00002070470000012001497A
:100E90000870704745000020014908607047000055
:100EA00014040140002123498279002A3AD00A46DD
:100EB000126803689A430B461A600A1D1268036899
:100EC0009A430B1D1A60027911440A6803681A4399
:100ED0000A60184A0832126803689A43154B0833AF
:100EE0001A601A1D126803689A43124B0C331A6079
:100EF0004279102A0ED11A1F126803681A430D4B4B
:100F000008331A601A1D126803681A43094B0C3320
:100F10001A600DE00749427911440A6803681A43D0
:100F20000A6005E0027911440A6803689A430A607E
:100F300070470000000401400549096821F01001D4
:100F4000034A1160114609680143116070470000AF
:100F50000020024001460020034A106800F03800DB
:100F600008431060704700000020024010B50129BE
:100F700010D1124B03EB8002D2F8002C48F68F738D
:100F80001A4048F2C0031A430C4C04EB8003C3F828
:100F9000002C11E002290FD1084B03EB8002D2F89C
:100FA000002C48F68F731A404CF280031A43034C0E
:100FB00004EB8003C3F8002C10BD0000005000407B
:100FC0002DE9F041024600250026002000230024E0
:100FD000002791F803C00CF00F0591F803C00CF046
:100FE000100CBCF1000F03D091F802C04CEA0505CB
:100FF00091F800C0BCF1000F31D0146800202BE044
:101000004FF0010C0CFA00F3B1F800C00CEA030633
:101010009E4220D183004FF00F0C0CFA03F7BC4323
:1010200005FA03FC4CEA040491F803C0BCF1280F54
:1010300006D14FF0010C0CFA00FCC2F814C00AE013
:1010400091F803C0BCF1480F05D14FF0010C0CFA28
:1010500000FCC2F810C0401C0828D1D31460B1F8BD
:1010600000C0BCF1FF0F34DD546800202EE000F119
:10107000080C4FF0010808FA0CF3B1F800C00CEAB4
:1010800003069E4221D183004FF00F0C0CFA03F7A8
:10109000BC4305FA03FC4CEA040491F803C0BCF11C
:1010A000280F05D100F1080C08FA0CF8C2F81480DA
:1010B00091F803C0BCF1480F07D100F1080C4FF0C4
:1010C000010808FA0CF8C2F81080401C0828CED39A
:1010D0005460BDE8F08141617047016170470000D4
:1010E00001460548006880B200EBC100001D034ABC
:1010F00032F8100080B27047505C00400060004041
:1011000001460548006880B200EBC100034A32F88E
:10111000100080B270470000505C0040006000404A
:1011200070B50A480468001D0568001D066834444F
:1011300054B108220649204600F046F8042204492A
:101140001031284600F040F870BD0000E8F7FF1F9E
:101150002D00002000BFFEE710B518480068047A93
:10116000022C01D0042C05D1FFF784FC1348006841
:10117000047A1CE0062C19D1104800684078052834
:101180000ED10E480068007800F07F0040B90B498E
:101190000968C87800F02EFC09490968086A804788
:1011A0000849096888688047082400E00824034942
:1011B00009680C7200F052FA10BD00004C000020CB
:1011C000580000205000002030B50B46002100BF21
:1011D00016E00A24B4EB107F05D9302404EB107418
:1011E00003F8114005E0412404EB10740A3C03F8B5
:1011F0001140000100254C00641C1D554C1CE1B23F
:101200009142E6DB30BD000010B5064CA07A18B163
:1012100005200549086002E001200349086001F04B
:10122000EDF910BD400500203401002000BFFEE7AD
:10123000014609B10448704704480068C088034A61
:10124000126810820020F6E7A40000204C00002065
:1012500010B50446002C2AD019A0FEF7D9FF1A4871
:101260000068417919A0FEF7D3FF19A0FEF7D0FF5F
:10127000154800684079812804D016A0FEF7C8FF01
:10128000002010BD15A0FEF7C3FF032C01D00020E5
:10129000F7E717A0FEF7BCFF0B480068417817A0DE
:1012A000FEF7B6FF0AA0FEF7B3FF1548E9E70648C8
:1012B0000068C0880449096808820020E1E700004E
:1012C00045503A20000000004C0000202568000036
:1012D0000A000000444F48210A00000020202D3E53
:1012E0002053414D504C4520524154450A000000C6
:1012F00062526571756573743A20000025640000C0
:10130000A400002010B50446002C33D0012C02D0DC
:10131000022C2BD104E024A0FEF77AFF264810BD52
:1013200026A0FEF775FF294800684078812806D07E
:1013300082280ED0832807D0842814D10EE024A060
:10134000FEF766FF2448EAE724A0FEF761FF254880
:10135000E5E725A0FEF75CFF2548E0E725A0FEF7BE
:1013600057FF2648DBE700BF00BF00E000BF00BF1B
:101370000020D4E7012C02D0022C0AD104E0012085
:101380001249096808820BE00220104909680882A6
:1013900006E00E480068C0880C490968088200BF52
:1013A00000BF0020BBE7000020202D3E204D5554FB
:1013B00045204355520A0000A400002020202D3E65
:1013C00020564F4C554D4520000000004C00002099
:1013D0004355520A00000000A60000204D41580A63
:1013E00000000000AA0000204D494E0A0000000045
:1013F000A80000205245530A00000000AC00002065
:10140000014609B10448704704480068C088034A8F
:10141000126810820020F6E7A40000204C00002093
:101420007047704770B5002100230F22C47804B3C1
:10143000154C246804F4E064C4F5E064210AC1F1A9
:101440000403CA40447804FA03F184781440214329
:1014500009010E4C0678A155047804F01F050124FB
:10146000AC4005786D11AD0005F1E025C5F80041EF
:1014700009E0047804F01F050124AC40044D06780F
:10148000761145F8264070BD0CED00E000E400E068
:1014900080E100E002490143024A11607047000008
:1014A0000000FA050CED00E070B502264748006820
:1014B000447846480068007800F07F00002844D156
:1014C000092C03D100F040FF06465FE0052C14D143
:1014D0003E480068C0787F280BDC3C480068807874
:1014E00038B93A480068808818B938480068807A66
:1014F00008B1082565E0002648E0032C0ED13348EA
:101500000068C078012807D130480068808818B981
:1015100000F03EFF064639E0022637E0012C35D1C7
:101520002A480068C07801280DD1284800688088C2
:1015300048B926480068407A00F0200018B100F051
:101540008FFD064622E0022620E020480068007851
:1015500000F07F00012805D10B2C17D100F094FF7B
:10156000064613E019480068007800F07F00022862
:101570000BD1012C03D100F073FD064606E0032CCD
:1015800004D100F019FF064600E002264EB1E0B299
:101590000F4A1268516988470646032E01D1092572
:1015A0000FE00EB108250CE006250021094800686F
:1015B00080B2801C084A42F8101030200749088089
:1015C00000BF024909680D7270BD00004C00002088
:1015D00050000020505C0040006000405E00002091
:1015E00010B511480068047A022C01D0042C01D1F6
:1015F000082412E0032C01D0052C05D1FFF79AFA3C
:1016000009480068047A08E0072C05D107490968F1
:10161000C8688047082400E00824034909680C7260
:1016200000F01CF810BD00004C000020500000200D
:10163000F0B5561C7510074E06EB41042B4605E02D
:1016400034F8047B20F8017B401C5B1E002BF7D193
:10165000F0BD0000006000407047000010B50D486C
:1016600090F82C10002000F0F9FA0B480068007A7E
:10167000082805D14002094908801020084908803F
:1016800005480068007A092801D1012010BD00201A
:10169000FCE70000B00000204C0000205C000020AF
:1016A0005E00002010B5012001F070F801240B4805
:1016B000046000200A49088008460088074908603D
:1016C0000020091D08604FF4E050054908800846D5
:1016D000008802490860002010BD0000405C004006
:1016E0005600002001460020034A506820F4404084
:1016F00008435060704700000010024029B1064ABC
:10170000D2690243044BDA6104E0034AD26982439E
:10171000014BDA61704700000010024029B1064A0F
:1017200092690243044B9A6104E0034A926982433E
:10173000014B9A6170470000001002400F4800689A
:1017400040F001000D490860084640680C49084017
:101750000A494860084600680A4908400749086085
:101760000846006820F4802008600846406820F49D
:10177000FE0048604FF41F00886070470010024070
:101780000000FFF8FFFFF6FE10B50146002200231F
:1017900000204A11012A02D1094C236806E0022ADE
:1017A00002D1074C236A01E0054C636A01F01F0275
:1017B000012494401C400CB1012000E0002010BD29
:1017C000001002400248406800F00C007047000022
:1017D0000010024001460020034A506820F0F0004B
:1017E000084350607047000000100240114909682A
:1017F00021F480310F4A11601146096821F48021DB
:101800001160B0F5803F03D0B0F5802F0ED106E017
:101810000849096841F48031064A116007E005492A
:10182000096841F4A021034A116000E000BF00BF35
:10183000704700000010024001460020034A506833
:1018400020F4E06008435060704700000010024040
:1018500001460020034A506820F4605040EAC1006D
:101860005060704700100240014908667047000050
:101870000000424202460020044B586820F47C10CD
:1018800042EA01031843014B5860704700100240C0
:1018900001460020034A506820F0030008435060CE
:1018A00070470000001002400149086070470000C6
:1018B000D800424238B5002000900024002500BF27
:1018C0003120FFF761FF05460098401C009000980A
:1018D000B0F5A06F01D0002DF2D03120FFF754FFFA
:1018E00008B1012400E00024204638BD70B505464B
:1018F0003248006820F0800030490860072D01D090
:101900002F4805702E48007808284ED2DFE800F0F6
:1019100004111A202B384E4F2A48006828B900F0CD
:1019200055F806202649087002E005202449087071
:1019300041E000F04BF804202149087001202149C2
:10194000086038E002201E4948700320087032E029
:101950001B484078401E1A4948700846407808B92C
:101960000420087027E01848006884B244F010048E
:10197000154804600520124908700A2048701AE0D2
:101980000F484078401E0E4948700846407858B9C4
:101990000D48006884B224F010040B48046006204F
:1019A000087000200749086005E000BF00BF06205E
:1019B0000349087000BF00BF70BD00000C0C01405F
:1019C000390100203C010020405C004010B5074870
:1019D000006884B224F0040404480460FFF714FC97
:1019E0004FF43F400149086010BD0000405C0040DA
:1019F0007047000030B501460F4B1A78002014E004
:101A000003060E4C04EB9353D3F8003C48F68F7456
:101A1000234048F280042343C4B223430406074D05
:101A200005EB9454C4F8003C401C9042E8D341F0CC
:101A30008003034C236030BDAE0000200050004006
:101A40004C5C004030B5034601291FD115480068A1
:101A500080B200EBC300801C134D05EB40043E2A0E
:101A60000BDD501102F01F050DB9451EA8B24FF451
:101A7000004545EA8025256007E0501002F0010589
:101A80000DB1451CA8B2850225600AE0022908D1E3
:101A90000448006880B200EBC300801C024C44F88C
:101AA000102030BD505C00400060004030B503465F
:101AB00001291FD11548006880B200EBC300801DCA
:101AC000134D05EB40043E2A0BDD501102F01F05BB
:101AD0000DB9451EA8B24FF4004545EA80252560A2
:101AE00007E0501002F001050DB1451CA8B28502B7
:101AF00025600AE0022908D10448006880B200EBA2
:101B0000C300801D024C44F8102030BD505C0040E2
:101B10000060004030B54B105B00094C2468A4B253
:101B200004EBC004074D45F8143053105C00044B1F
:101B30001B689BB203EBC0031B1D45F8134030BD6F
:101B4000505C00400060004030B50B46012B1FD1B7
:101B50002C49096889B201EBC001891C2A4D05EBAB
:101B600041043E2A0BDD511102F01F050DB94D1E37
:101B7000A9B24FF4004545EA8125256007E05110E0
:101B800002F001050DB14D1CA9B28D0225600AE0DD
:101B9000022B08D11B49096889B201EBC001891CDD
:101BA000194C44F81120012B1FD11649096889B23C
:101BB00001EBC001891D144D05EB41043E2A0BDDEC
:101BC000511102F01F050DB94D1EA9B24FF4004589
:101BD00045EA8125256007E0511002F001050DB1AD
:101BE0004D1CA9B28D0225600AE0022B08D10549DF
:101BF000096889B201EBC001891D034C44F811202A
:101C000030BD0000505C004000600040094A02EB1B
:101C10008001D1F8001C41F4807148F68F721140A8
:101C200048F280021143034B03EB8002C2F8001C10
:101C3000704700000050004010B54A105300054A9C
:101C4000126892B202EBC002121D034C44F812302B
:101C500010BD0000505C00400060004010B502461E
:101C60000F48006880B200EBC200801D0D4C04EBF1
:101C700040033E290BDD481101F01F040CB9441E3E
:101C8000A0B24FF4004444EA80241C6007E04810EE
:101C900001F001040CB1441CA0B284021C6010BD10
:101CA000505C00400060004030B50E4C04EB8003F7
:101CB000D3F8003C4BF68F7403EA040201F480531E
:101CC0000BB182F4805201F400530BB182F4005244
:101CD00042F4004343F08003024D05EB8004C4F856
:101CE000003C30BD0050004010B50B4B03EB8002B0
:101CF000D2F8002C4BF68F7302EA030181F4805175
:101D000081F4005141F4004242F08002024C04EBA5
:101D10008003C3F8002C10BD0050004010B54A10DD
:101D20005200044B1B689BB203EBC003024C44F807
:101D3000132010BD505C004000600040044A12684F
:101D400092B202EBC002921C024B43F81210704791
:101D5000505C00400060004030B50E4C04EB800346
:101D6000D3F8003C48F6BF7403EA040201F0100304
:101D70000BB182F0100201F020030BB182F02002BF
:101D800042F4004343F08003024D05EB8004C4F8A5
:101D9000003C30BD0050004010B50B4B03EB8002FF
:101DA000D2F8002C48F6BF7302EA030181F010015B
:101DB00081F0200141F4004242F08002024C04EB29
:101DC0008003C3F8002C10BD0050004010B5074B35
:101DD00003EB8002D2F8002C48F68F131A400A4316
:101DE000024C04EB8003C3F8002C10BD00500040EF
:101DF00010B5FFF7A3FC4FF48030FFF7F7FCFFF7B7
:101E000059FD0446012C25D11020FFF795F802203A
:101E1000FFF7A0F80020FFF7DDFC0020FFF718FD1A
:101E2000A002FFF709FD4FF4E0112004FFF722FDA7
:101E30000120FFF719FD00BF3920FFF7A5FC00289E
:101E4000FAD00220FFF724FD00BFFFF7BBFC0828F3
:101E5000FBD101E000BFFEE710BD10B500F002F8B5
:101E600010BD00000CB500200190009033480068C0
:101E700040F480303149086000BF3048006800F409
:101E8000003000900198401C0190009818B901980A
:101E9000B0F5A06FF1D12948006800F4003010B10E
:101EA0000120009001E0002000900098012843D11B
:101EB0002348006840F01000214908600846006887
:101EC00020F0030008600846006840F00200086047
:101ED0001A48406819494860084640684860084602
:101EE000406840F4806048600846406820F47C10F8
:101EF00048600846406840F4E810486008460068BA
:101F000040F08070086000BF0C48006800F000706E
:101F10000028F9D00948406820F0030007494860CC
:101F20000846406840F00200486000BF034840682F
:101F300000F00C000828F9D10CBD00000010024090
:101F40000020024008B501212020FFF7E7FB4FF4F5
:101F50000070ADF8000003208DF8020014208DF809
:101F6000030069460948FFF72BF84FF48020FEF77D
:101F700093FF4FF480200649086008204871012033
:101F800088710846FEF78EFF08BD0000001401406E
:101F90002000002010B50020FFF786FC0121C805B5
:101FA000FFF7ACFB10BD000038B5012429480068DC
:101FB00080B2001D284931F8100080B201EB4000CA
:101FC000009026480068007A092832D000980078EE
:101FD0002249096808700098401C00900098007819
:101FE0001E49096848700098401C0090009800EB5A
:101FF00044000090009931F8020B0091FEF7A7FB16
:10200000164909684880009800EB44000090009948
:1020100031F8020B0091FEF79AFB1049096888809D
:10202000009800EB44000090009800880B49096874
:10203000C880012009490968087208480068C088FA
:1020400010B9FFF731FA01E0FEF7D2FDFFF706FB0A
:1020500038BD0000505C0040006000404C00002093
:102060002DE9F04754480068007800F07F08B8F187
:10207000000F0AD150480068407A00F0DF004E4956
:10208000096848720020BDE8F087B8F1020F7CD1E2
:1020900049480068408818B947480068007908B185
:1020A0000220F0E7DFF8149143480068477927F0F1
:1020B00080052C4640480068407900F0800038B127
:1020C0003F4901EB8400D0F8000C00F0300606E038
:1020D0003B4901EB8400D0F8000C00F4405699F81D
:1020E0000000A84204D91EB133480068807A08B9BC
:1020F0000220C8E707F0800080B1314901EB84007D
:10210000D0F8000C00F0300010284BD1E0B2FEF700
:1021100083FCE0B23021FFF71FFE43E0284901EBCA
:102120008400D0F8000C00F44050B0F5805F39D145
:10213000E4B9244A92F82C10E0B2FFF78FFD204A50
:1021400002EB8401D1F8001C4BF68F7201EA020009
:1021500080F4805080F4005040F4004141F0800150
:10216000174B03EB8402C2F8001C1BE0E0B2FEF741
:1021700039FC134A02EB8401D1F8001C4BF68F7234
:1021800001EA020080F4805000E011E080F4005089
:1021900040F4004141F08001094B03EB8402C2F896
:1021A000001C00BF084909684869804700206AE7A9
:1021B00000BF022067E700004C000020AE000020B6
:1021C00000500040B00000205800002010B5044628
:1021D0002CB90120064909680882002010BD054974
:1021E000096808688047024800680A30F6E700007E
:1021F0004C0000205800002010B502460648006838
:10220000438A32B98888C01A034C2468208200208F
:1022100010BD08681844FBE74C00002010B50446C8
:102220002CB90120064909680882002010BD054923
:10223000096888688047024800680C30F6E70000AB
:102240004C0000205800002010B504462CB9022094
:10225000394909680882002010BD002037490880EC
:1022600035480068007800F07F0018BB32490968E3
:10227000487A00F0200131B13049097841F002017B
:102280002E4A117005E02D49097801F0FD012B4A15
:10229000117000F0400131B12849097841F0010185
:1022A000264A117005E02549097801F0FE01234A0C
:1022B00011703AE020480068007800F07F000128A3
:1022C00001D11E48C8E71C480068007800F07F0074
:1022D000022828D1184A1268517901F00F0001F044
:1022E00080027AB1164B03EB8002D2F8002C02F088
:1022F0003002102A16D1114A127842F001020F4B17
:102300001A700FE00E4B03EB8002D2F8002C02F49F
:102310004052B2F5805F05D1084A127842F00102BE
:10232000064B1A7001E0002096E706490968086923
:102330008047024890E700004C0000202800002061
:10234000005000405800002010B50E480068C078CA
:102350000D494978884213DC0A480068807878B9CA
:1023600008480068808858B906480068C078054960
:10237000096888720549096848688047002010BDCF
:102380000220FCE74C000020AE0000205800002096
:1023900010B507480068407A40F0200004490968F9
:1023A000487204490968C8698047002010BD0000D0
:1023B0004C000020580000202DE9F0412E48006814
:1023C000467926F080073C462B480068407900F0AB
:1023D000800038B1294901EB8400D0F8000C00F0EE
:1023E000300506E0254901EB8400D0F8000C00F42C
:1023F000405523480078A04208D91F48006840880B
:1024000020B91DB11C480068807A10B90220BDE8CF
:10241000F08106F08000A0B1184A02EB8401D1F8E7
:10242000001C48F6BF7201EA020080F0100040F480
:10243000004141F08001114B03EB8402C2F8001C03
:1024400014E00E4A02EB8401D1F8001C4BF68F72A7
:1024500001EA020080F4805040F4004141F0800124
:10246000064B03EB8402C2F8001C00BF0549096853
:10247000886980470020CAE74C00002000500040D7
:10248000AE0000205800002010B5174B1B68D9780B
:10249000154B1B685879154B1B689A699047044681
:1024A00011480068807AE8B13CB90F4800680079AB
:1024B00018B90D480068807808B1022010BD8CB9A9
:1024C0000B490968C8688047074800684079064991
:1024D0000968C87204480068C0780349096808732D
:1024E0000020EBE70220E9E74C000020500000202C
:1024F0005800002038B50021002200230093394BFA
:102500001B6898B200BF09E0374C04EB8103D3F895
:10251000003C9BB2354C44F82130491C0829F3D3C8
:1025200040F480602F4B186040F00100186020F0EC
:102530000100186000BF2B4B1B1D1B6803F4806358
:10254000002BF8D04FF6FF33264C241D23600021CA
:1025500009E0264B53F821309BB2234D05EB810453
:10256000C4F8003C491C0829F3D340F008001D4B77
:1025700018601B6898B240F004001A4B18601C4B9E
:102580001B6800931A4B1A6822F0030242F0010202
:102590001A60184B1B6843F00403164C2360114B60
:1025A0001B1D1B6803F4805333B930BF23461B68DF
:1025B00023F00403236014E04EF6FF73094C241D3E
:1025C0002360231F1B6898B220F00800231F1860A7
:1025D000074C009B2360074B1B6823F00403054C4A
:1025E000236038BD405C0040005000405C05002086
:1025F0000070004010ED00E07047000010B5134877
:10260000006840F001001149086008464068104920
:1026100008400E494860084600680E4908400B49CA
:1026200008600846006820F480200860084640687A
:1026300020F4FE0048604FF41F008860FFF70DFC97
:102640004FF000600449086010BD00000010024017
:102650000000FFF8FFFFF6FE08ED00E021B1028860
:1026600042F08002028004E002884FF67F731A4035
:102670000280704721B1028842F00102028004E02A
:1026800002884FF6FE731A400280704782884FF628
:102690008F731A40828082880A43828070470000CC
:1026A000002202881D4B98420ED01D4B98420BD041
:1026B000B0F1804F08D01B4B984205D01A4B98427E
:1026C00002D01A4B984204D14FF68F731A404B88B0
:1026D0001A43174B984207D0164B984204D04FF636
:1026E000FF431A40CB881A4302808B8883850B886E
:1026F00003850A4B98420BD0094B984208D00E4BE9
:10270000984205D00D4B984202D00D4B984201D112
:102710000B7A03860123838270470000002C01405E
:10272000003401400004004000080040000C00405C
:1027300000100040001400400040014000440140EF
:10274000004801404FF6FF71818000210180C18067
:102750004180017270470000084A02EB8001D1F805
:10276000001C48F68F7211404CF280021143034B5B
:1027700003EB8002C2F8001C7047000000500040CC
:1027800010B54FF48020FEF787FB10BD10B504464E
:102790002CB14FF400710548FEF79DFC04E04FF4A6
:1027A00000710248FEF799FC10BD000000140140C2
:1027B00010B50848084908600220096808720748EF
:1027C000074908600748084908600549096808681A
:1027D000804710BD400500204C000020B0000020C4
:1027E00050000020E00000205800002008B54FF401
:1027F000A060FEF74FFE14208DF8000002208DF837
:10280000010000208DF8020001208DF803006846C9
:10281000FEF708FE2A208DF8000001208DF8010047
:102820006846FEF7FFFD08BD10B588B000246D486E
:1028300000686D4908800846008800F400406B4934
:102840000988084008B1FDF789FF6748008800F44F
:10285000806066490988084030B14FF6FF30614911
:1028600008606349486880475F48008800F400506A
:102870005E490988084018B14DF6FF705949086053
:102880005948008800F4805058490988084030B100
:102890004EF6FF70534908600020FFF727F85248B2
:1028A000008800F40060514909880840B0B15148DF
:1028B000007860B150480068052808D14F4800688A
:1028C00040F080004D490860FFF714FE02E002204E
:1028D000FFF70CF84FF2FF70424908604248008849
:1028E00000F4007041490988084040B14FF6FF509C
:1028F0003C49086042480078401C414908703A4809
:10290000008800F48070394909880840002866D0A2
:102910004FF6FF6033490860081D006800F400406E
:10292000002856D037480068401C364908600846E1
:102930000068032850D92B48001F006800F00800E9
:10294000002849D12748001F006880B22E4908603E
:10295000002408E02D4901EB8400D0F8000C80B27F
:102960004DF82400641C082CF4D32748006840F07C
:102970000100254908600846006880B21949091F0E
:1029800008602148006820F001001F4908600846DF
:10299000006880B21349091F086000BF1148006831
:1029A00000F480600028F9D04FF6FF300D49086030
:1029B000002408E05DF8240080B2144A02EB840190
:1029C000C1F8000C641C082CF4D300200D490860E9
:1029D00002E000200B4908600720FEF787FF08B0DF
:1029E00010BD0000445C0040600000205600002044
:1029F000B000002038010020340100200C0C014000
:102A000062000020640000206800002000500040A8
:102A100010B5FFF709FF10BD0020064908604FF40C
:102A20003F4005490880084600880249091F0860A0
:102A300000207047445C00405600002070B50546F9
:102A4000002417480068007821280BD0222813D0D2
:102A5000A12802D0A22814D109E012A0FDF7D8FBCA
:102A6000134C10E013A0FDF7D3FB154C0BE015A0A1
:102A7000FDF7CEFB164C06E016A0FDF7C9FB184C7F
:102A800001E0022070BD00BF05480068846100219C
:102A90000348006841820020A0470020F2E70000C0
:102AA0004C000020202D3E204745542046550A006A
:102AB00005130008202D3E205345542046550A009A
:102AC00001140008202D3E204745542045500A009F
:102AD00031120008202D3E205345542045500A0055
:102AE0005112000810B5044602492046FFF784FB46
:102AF00010BD00000C01002010B50446024920461C
:102B0000FFF77AFB10BD00000401002070B50546F8
:102B100006480068C478042C01DD002070BD04481C
:102B200000EBC4012846FFF767FBF7E74C000020E5
:102B3000140100200246012901DD02207047012A0C
:102B400001DD0220FAE70020F8E7000010B5FEF7EB
:102B5000E7FA0020054909688872FEF7A3FDFFF730
:102B60005BFF00200249086010BD00004C000020FF
:102B700034010020014602207047000010B50020FB
:102B80002B49096888722B48C0792949096848721D
:102B90000020294908604915FFF718F92021002075
:102BA000FFF7DAF810210020FFF746F8234890F8E5
:102BB0002C100020FFF752F850210020FFF7AEF84C
:102BC0000020FDF743FF0020FFF78EF84FF48061EF
:102BD0000120FFF7FBF80120FFF718F8D022902121
:102BE0000120FEF797FF154890F82C2002210120C4
:102BF000FEF7AAFF0120FDF70FFF0120FDF7F2FE0F
:102C00000120FFF7A9FD00210120FFF74DF8302139
:102C10000120FFF7A1F80020FFF766F80020FEF77B
:102C2000E9FE0120064908600649087010BD000051
:102C30004C000020A82F0008505C0040B00000208D
:102C400034010020450000200348807A10B105209F
:102C50000249086070470000400500203401002050
:102C60000420014908607047340100207047704714
:102C700000BFFEE7F0B5144604F1010C4FEA6C0703
:102C8000DFF824C00CEB41033D460AE00678401C07
:102C900090F800C046EA0C2223F8022B9B1C401C33
:102CA0006D1E002DF2D1F0BD0060004000B587B070
:102CB00000208DF807000120ADF8040001A931487B
:102CC000FEF77EF912208DF8000000208DF801003B
:102CD0008DF8020001208DF803006846FEF7A2FB84
:102CE0004FF40040FEF7FEFC01214802FEF716FDFE
:102CF000002002908DF80C008DF80D004FF460203C
:102D000004900020059001208DF8180002A91E48AB
:102D1000FDF792FC01211C48FDF7F7FC022301227C
:102D200008211948FDF7B0FC4FF4A0411648FDF703
:102D300048FC40F26C7214211348FDF7F7FC0121A6
:102D40001148FDF728FC1048FDF7EBFC00BF0E48CA
:102D5000FDF75BFC0028FAD10B48FDF7F1FC00BF42
:102D60000948FDF736FC0028FAD101224FF49061A2
:102D70000548FDF754FC01210348FDF717FC07B097
:102D800000BD0000000C014000240140074A126809
:102D900002F0807242B100BF4FF060421268002A18
:102DA000FAD04FF06043187070470000FCED00E06F
:102DB00008B501211020FEF7B1FC4FF40050ADF82A
:102DC000000010208DF8030003208DF802006946F2
:102DD0000148FEF7F5F808BD00100140002000E0B2
:102DE000401C3D498842FBD3FFF7ACF8FFF700F8E1
:102DF000FFF7D0F8FFF7FAFCFFF7DAFCFFF756FF12
:102E000000F07EF8FFF7D4FF00BF344800680528C3
:102E1000FBD160E032480078A8B33248006800F483
:102E2000804068B13049314A1268881840229021A8
:102E3000FFF720FF402202210120FEF703FE0CE0F5
:102E400029492A4A126888184022D021FFF712FF28
:102E5000402202210120FEF729FE02210120FEF777
:102E600085F80120FEF798FF00201D4908701F48D3
:102E7000006840301D49086008460068B0F5707F62
:102E800001D9002008601A4800681849096888427A
:102E900011D91748008815490988401A84B2B4F539
:102EA000007F04DD40F219101249088003E04FF45E
:102EB0008C70104908801048B0F90000C82805DD62
:102EC0004FF400510D48FEF706F904E04FF40051AD
:102ED0000A48FEF702F99DE7809698003401002029
:102EE00045000020045C004040010020000000205C
:102EF000040000202C0800400E00002000100140BB
:102F00000EB501210420FEF7F9FB6846FFF71AFC15
:102F10000020ADF80200ADF800004FF48C70ADF861
:102F2000040069460748FFF7BBFB20210548FFF76F
:102F3000ADFB01210348FFF79DFB01210148FFF78D
:102F40008DFB0EBD00080040120100020000004091
:102F50008304305701000102030104030904100334
:102F6000420045004C0041005200550053003A0316
:102F7000530054004D003300320046003100300051
:102F80003300430038005400360020005500530041
:102F9000420020004D006900630072006F00700065
:102FA00068006F006E006500090273000201008076
:102FB0007D0904000000010100000924010001272F
:102FC0000001010C240201010200010000000009BF
:102FD000240302010100010009240603010103008A
:102FE00000090401000001020000090401010101BF
:102FF000020000072401020101000B24020101026A
:103000001001007D00090581014000010000072535
:103010000101000000000000000000003C3000083A
:10302000000000204001000028010008A430000832
:1030300040010020A00A000084010008012B033F8A
:103040001A03138D0E0C2C0823140481160180FF23
:103050007F011502014D2B1B087D04136D2C1B08ED
:103060006F04133D2A1B0875101A35041AF90C1A3F
:10307000E5041A0D0C41324029441A49280916600A
:103080001A611C13482F3308121AA80832731A5AEF
:103090000832041A5E0832101A6E08323A222B6B7C
:0430A000201A9071F1
:04000005080001D11D
:00000001FF
